{
  "_format": "hh-sol-artifact-1",
  "contractName": "Faucet",
  "sourceName": "contracts/faucet.sol",
  "abi": [
    {
      "inputs": [],
      "stateMutability": "payable",
      "type": "constructor"
    },
    {
      "inputs": [],
      "name": "owner",
      "outputs": [
        {
          "internalType": "address",
          "name": "",
          "type": "address"
        }
      ],
      "stateMutability": "view",
      "type": "function"
    },
    {
      "inputs": [
        {
          "internalType": "uint256",
          "name": "_amount",
          "type": "uint256"
        }
      ],
      "name": "withdraw",
      "outputs": [],
      "stateMutability": "nonpayable",
      "type": "function"
    }
  ],
  "bytecode": "0x6080604052336000806101000a81548173ffffffffffffffffffffffffffffffffffffffff021916908373ffffffffffffffffffffffffffffffffffffffff1602179055506101e6806100536000396000f3fe608060405234801561001057600080fd5b50600436106100365760003560e01c80632e1a7d4d1461003b5780638da5cb5b14610057575b600080fd5b6100556004803603810190610050919061010a565b610075565b005b61005f6100d1565b60405161006c9190610142565b60405180910390f35b6402540be40081111561008757600080fd5b3373ffffffffffffffffffffffffffffffffffffffff166108fc829081150290604051600060405180830381858888f193505050501580156100cd573d6000803e3d6000fd5b5050565b60008054906101000a900473ffffffffffffffffffffffffffffffffffffffff1681565b60008135905061010481610199565b92915050565b60006020828403121561011c57600080fd5b600061012a848285016100f5565b91505092915050565b61013c8161015d565b82525050565b60006020820190506101576000830184610133565b92915050565b60006101688261016f565b9050919050565b600073ffffffffffffffffffffffffffffffffffffffff82169050919050565b6000819050919050565b6101a28161018f565b81146101ad57600080fd5b5056fea26469706673582212202760562a8916275473cba60b60aff1cec9fa7266c97ddafc9f63b93aac1df25564736f6c63430008040033",
  "linkReferences": {},
  "deployedLinkReferences": {}
}